00000005000GASNATURAL00000077330,81090010   CSPTTC1011235278        00000001005       N900607484-2       0001826577        000000000000
00000000852GASNATURAL00000077330,81001010   CSPTTPA344F             000000854498      N900607484-2       0001826577        000000000000
00000000500GASNATURAL00000077330,81090010   CSPTTC1012352378        000000001003      N900607484-2       0001826577        000000000000
00000000500GASNATURAL00000077330,81090010   CSPTTN860066942-7    4540000010000100     N900607484-2       0001826577        000000000000
00000000500GASNATURAL00000077330,81090010   CSPTTC1012352378        0000010000010     N900607484-2       0001826577        000000000000
00000000500GASNATURAL00000077330,81090010   CSPTTC1012352378        0000010001sdfsdf  N900607484-2       0001826577        020000000000
00000000500GASNATURAL00000077330,81090010   CSPTTC12345678          000000100011      N900607484-2       0001826577        002000000000
00000006521GASNATURAL00000077330,81001010   CSPTTC1136884245        0000789339784     N900607484-2       0001826577        002500000000
00000000874GASNATURAL00000077330,81002010   CSPTTC70079546          000201053466      N900607484-2       0001826577        000000000000
00000000085GASNATURAL00000077330,81007010   CSPTTC70080783          00002801783215    N900607484-2       0001826577        000000000000
00000143529GASNATURAL00000077330,81007010   CSPTTN850214639-9       0000852146C18     N900607484-2       0001826577        005660000000
00000003529GASNATURAL00000077330,81007010   CSPTTC54                0000852146C28     N900607484-2       0001826577        000000000000
00000000029GASNATURAL00000077330,81007010   CSPTTC54                0000852146C38     N900607484-2       0001826577        000000000000
00000000142GASNATURAL00000077330,81007010   CSPTTC54                0000852146C48     N900607484-2       0001826577        002500000000
00000000500GASNATURAL00000077330,81090010   CSPTTC1012352378        00001223331       N900607484-2       0001826577        050000000000
00000005000GASNATURAL00000077330,81090010   CSPTTC1012352378        0000111000011     N900607484-2       0001826577        000000000000
00000000500GASNATURAL00000077330,81090010   CSPTTC1012352378        0000010004100     N900607484-2       0001826577        000000000000
00000000100GASNATURAL00000077330,81090010   CSPTTC80200037          0000874568Refe    N900607484-2       0001826577        005660000000
00000000100GASNATURAL00000077330,81090010   CSPTTC80200037          0000874568Refe    N900607484-2       0001826577        005660000000
00000000100GASNATURAL00000077330,81090010   CSPTTC80200037          0000874568Refe    N900607484-2       0001826577        005660000000
00000000100GASNATURAL00000077330,81090010   CSPTTC80200037          0000874568Refe    N900607484-2       0001826577        005660000000
00000004500GASNATURAL00000077330,81090010   CSPTTC1012352378        0001115500150     N900607484-2       0001826577        000000000000
00000003500GASNATURAL00000077330,81090010   CSPTTN860066942-7       0004577700458     N900607484-2       0001826577        070000000000
00000008500GASNATURAL00000077330,81090010   CSPTTC48784456          004564787401      N900607484-2       0001826577        050000000000
00000007800GASNATURAL00000077330,81090010   CSPTTC1013627731        00487897891       N900607484-2       0001826577        078000000000
00000058000GASNATURAL00000077330,81090010   CSPTTC1012352456        0045551215454     N900607484-2       0001826577        050000000000
