00012678997ODINSA    00000009500,00057050   CSPTTN800227940-6       00000014493451    N890900266-3       0000000001        000016000000
00002634694ODINSA    00000009500,00050050   CSPTTN860005986-1       000052513829794   N890900266-3       0000000001        000000000000
00000774064ODINSA    00000009500,00010050   CSPTTN890985376-1       0000593586121096  N890900266-3       0000000001        000000000000
00000722252ODINSA    00000009500,00010050   CSPTTN900258112-1       0001428207121099  N890900266-3       0000000001        000000000000
00000342118ODINSA    00000009500,00010050   CSPTTC41637455          0000012447119562  N890900266-3       0000000001        000000000000
00000257655ODINSA    00000009500,00010050   CSPTTN900694845-9       0001870558120957  N890900266-3       0000000001        000000000000
00000469625ODINSA    00000009500,00057050   CSPTTN900391901-2       00015445463454    N890900266-3       0000000001        000016000000
00000424607ODINSA    00000009500,00057050   CSPTTN900391896-3       00015445453452    N890900266-3       0000000001        000016000000
00000322417ODINSA    00000009500,00007050   CSPTTC17087575          00005304281       N890900266-3       0000000001        000300000000
00000304903ODINSA    00000009500,00057050   CSPTTN800198644-5       00000014443455    N890900266-3       0000000001        000016000000
00000094369ODINSA    00000009500,00010050   CSPTTC42898648          0000050254120949  N890900266-3       0000000001        000000000000
00000157574ODINSA    00000009500,00007050   CSPTTC41421722          00014438432       N890900266-3       0000000001        000300000000
00000076774ODINSA    00000009500,00010050   CSPTTC21301928          0000048858120955  N890900266-3       0000000001        000000000000
00000071019ODINSA    00000009500,00010050   CSPTTC43730157          0000048859120951  N890900266-3       0000000001        000000000000
00000066244ODINSA    00000009500,00050050   CSPTTN860052265-8       000033371830001   N890900266-3       0000000001        000000000000
00000061185ODINSA    00000009500,00050050   CSPTTC21353255          000069384129945   N890900266-3       0000000001        001000000000
00000120053ODINSA    00000009500,00010050   CSPTTN892001087-1       0000530443119065  N890900266-3       0000000001        000150000000
00000120025ODINSA    00000009500,00010050   CSPTTC8249793           0000530411121000  N890900266-3       0000000001        000200000000
00000108760ODINSA    00000009500,00029050   CSPTTN860520304-5       0000733819364570  N890900266-3       0000000001        000500000000
00000089630ODINSA    00000009500,00057050   CSPTTN830070784-6       00001963343456    N890900266-3       0000000001        000016000000
00000083612ODINSA    00000009500,00010050   CSPTTC13826491          0000507662118504  N890900266-3       0000000001        000200000000
00000063842ODINSA    00000009500,00007050   CSPTTN800244721-1       00005304525       N890900266-3       0000000001        000300000000
00000061149ODINSA    00000009500,00007050   CSPTTC5550161           00000612837       N890900266-3       0000000001        000500000000
00000060227ODINSA    00000009500,00001050   CSPTTN890942101-7       0000530441001     N890900266-3       0000000001        000300000000
00000057987ODINSA    00000009500,00026050   CSPTTN830016174-4       000053045801      N890900266-3       0000000001        000500000000
00000054178ODINSA    00000009500,00010050   CSPTTC80426215          0000174708119184  N890900266-3       0000000001        000200000000
00000021290ODINSA    00000009500,00050050   CSPTTN830025169-5       000039368129711   N890900266-3       0000000001        000000000000
00000038135ODINSA    00000009500,00010050   CSPTTC40366515          0000554909121008  N890900266-3       0000000001        000500000000
00000035623ODINSA    00000009500,00010050   CSPTTC1125788693        0000695381121005  N890900266-3       0000000001        000500000000
00000012636ODINSA    00000009500,00050050   CSPTTC71736046          000069383729946   N890900266-3       0000000001        001000000000
00000025093ODINSA    00000009500,00057050   CSPTTN830070784-6       00001963343457    N890900266-3       0000000001        000016000000
00000024662ODINSA    00000009500,00010050   CSPTTC43721635          0001490720119084  N890900266-3       0000000001        000500000000
00000021550ODINSA    00000009500,00010050   CSPTTN900455513-4       0001795201120971  N890900266-3       0000000001        000500000000
00000019063ODINSA    00000009500,00007050   CSPTTC52045861          00014438413       N890900266-3       0000000001        000300000000
00000018331ODINSA    00000009500,00057050   CSPTTN900391900-5       00015445483453    N890900266-3       0000000001        000016000000
00000016357ODINSA    00000009500,00050050   CSPTTN900125339-3       000148421730590   N890900266-3       0000000001        003000000000
00000010718ODINSA    00000009500,00010050   CSPTTC15346531          0000588587119955  N890900266-3       0000000001        000000000000
00000005278ODINSA    00000009500,00010050   CSPTTC8271191           0000004984119559  N890900266-3       0000000001        000300000000
00000005215ODINSA    00000009500,00010050   CSPTTC17050838          0000407460119124  N890900266-3       0000000001        000800000000
00000009907ODINSA    00000009500,00007050   CSPTTC3227355           00009443974       N890900266-3       0000000001        000300000000
00000008202ODINSA    00000009500,00010050   CSPTTC1127236260        0000695380121007  N890900266-3       0000000001        000700000000
00000005908ODINSA    00000009500,00010050   CSPTTC79378104          0001427214119190  N890900266-3       0000000001        000700000000
00000005467ODINSA    00000009500,00010050   CSPTTN900842085-3       0001950715120025  N890900266-3       0000000001        000001000000
00000002391ODINSA    00000009500,00050050   CSPTTC43572351          000147535630470   N890900266-3       0000000001        000000000000
00000001764ODINSA    00000009500,00010050   CSPTTC9533312           0000768458119193  N890900266-3       0000000001        000776000000
00000001195ODINSA    00000009500,00037050   CSPTTC42889631          00005314991811815 N890900266-3       0000000001        001321000000
00000000996ODINSA    00000009500,00026050   CSPTTC19345822          000000670702      N890900266-3       0000000001        001270000000
00000000397ODINSA    00000009500,00007050   CSPTTC17007973          0000103429001     N890900266-3       0000000001        000000000000
00000000397ODINSA    00000009500,00007050   CSPTTC20242384          0000008105002     N890900266-3       0000000001        000000000000
00000000346ODINSA    00000009500,00010050   CSPTTC51962339          0001707214119805  N890900266-3       0000000001        003955000000
00000000191ODINSA    00000009500,00050050   CSPTTN890917499-7       000003434730587   N890900266-3       0000000001        000000000000
00000000354ODINSA    00000009500,00026050   CSPTTC51558590          000001335003      N890900266-3       0000000001        003570000000
00000000240ODINSA    00000009500,00026050   CSPTTC51624548          000052814704      N890900266-3       0000000001        005260000000
00000000029ODINSA    00000009500,00050050   CSPTTC32496116          000007829530473   N890900266-3       0000000001        000000000000
00000000072ODINSA    00000009500,00010050   CSPTTC1098808370        0001148799118480  N890900266-3       0000000001        000000000000
00000001884ODINSA    00000009500,00010050   CSPTTN830049297-3       0000093702118385  N890900266-3       0000000001        000500000000
00000001560ODINSA    00000009500,00010050   CSPTTN900394141-5       0001534556118386  N890900266-3       0000000001        000500000000
00000003049ODINSA    00000009500,00010050   CSPTTC94365427          0001598013118571  N890900266-3       0000000001        000500000000
00000001146ODINSA    00000009500,00010050   CSPTTN890942985-0       0000329125119329  N890900266-3       0000000001        001194000000
00000000318ODINSA    00000009500,00010050   CSPTTN830120278-6       0000690380119555  N890900266-3       0000000001        004303000000
00000004806ODINSA    00000009500,00007050   CSPTTC52220185          00014545786       N890900266-3       0000000001        000300000000
00000000902ODINSA    00000009500,00029050   CSPTTC79246374          0000068226370620  N890900266-3       0000000001        001500000000
00000003396ODINSA    00000009500,00029050   CSPTTN800107686-5       0001419352370887  N890900266-3       0000000001        000300000000
00000000115ODINSA    00000009500,00001050   CSPTTC70042322          0000548178002     N890900266-3       0000000001        001831000000
00000000430ODINSA    00000009500,00026050   CSPTTC43730366          000080698705      N890900266-3       0000000001        002940000000
00000001096ODINSA    00000009500,00010050   CSPTTC43207868          0000143907120342  N890900266-3       0000000001        000400000000
00000000602ODINSA    00000009500,00010050   CSPTTC51840062          0000096111120375  N890900266-3       0000000001        002273000000
00000002346ODINSA    00000009500,00010050   CSPTTI1034990969        0000746589120398  N890900266-3       0000000001        000500000000
00000000273ODINSA    00000009500,00007050   CSPTTC91283847          00011036728       N890900266-3       0000000001        003856000000
00000001726ODINSA    00000009500,00010050   CSPTTC43614961          0000521478120959  N890900266-3       0000000001        000793000000
00000000546ODINSA    00000009500,00010050   CSPTTC1152192367        0000730683121009  N890900266-3       0000000001        002506000000
00000005000ODINSA    00000009500,00002050   CSPTTC1012352378        00001223332       N890900266-3       0000000001        010000000000
