0000000010000000502     8502146399   2                              INVERSIONES PREA              021691000000000000010000022198420000005000000000110992100000000110992100000000000000000000000000+00000000000000000011099210000120181031201805032018050300070085214620900007C18     C
0000000020010000001     1012352456   1DE LA CALLE                   HUMBERTO                      021691000000000000020000004485180000005000000000022425900000000022425900000000000000000000000000+00000000000000000002242590000120181031201810232018102300904555121520900090454     C
0000000030000000101     1136884245   1                              EMPRESA NATURAL               021691000000000000030000001008540000005000000000005042700000000005042700000000000000000000000000+00000000000000000000504270000120181031201805022018050200010078933920900001784     C
0000000040000001401     1012352378   1BABATIVA                      DIEGO                         021691000000000000040000000773300000005000000000003866500000000003866500000000000000000000000000+00000000000000000000386650000120181031201810082018100800900011100020900090011     C
0000000050000001801     1011235278   1BABATIVA                      DIEGO                         021691000000000000050000000773300000005000000000003866500000000003866500000000000000000000000000+000000000000000000003866500001201810312018100920181009009000000100209000905       C
0000000060000003601     1012352378   1ERROR MYSQL                   PRUEBA OPA                    021691000000000000060000000695970000005000000000003479850000000003479850000000000000000000000000+00000000000000000000347985000120181031201810232018102300900111550020900090150     C
0000000070000004001       48784456   1DFSFS                         PRUEBA OPI                    021691000000000000070000000657310000005000000000003286550000000003286550000000000000000000000000+0000000000000000000032865500012018103120181023201810230090456478742090009001      C
0000000080000004101     1013627731   1OPI 2                         PRUEBA                        021691000000000000080000000603180000005000000000003015900000000003015900000000000000000000000000+000000000000000000003015900001201810312018102320181023009048789789209000901       C
0000000090000000601             54   1                              INVERSIONES NUEVAS            021691000000000000090000000545800000005000000000002729000000000002729000000000000000000000000000+00000000000000000000272900000120181031201805032018050300070085214620900007C28     C
0000000100000000301       70079546   1                              INVERSIONISTA DE PRUEBA       021691000000000000100000000135170000005000000000000675850000000000675850000000000000000000000000+0000000000000000000006758500012018103120180502201805020002020105342090000266      C
0000000110000000206          A344F   1                              FELI                          021691000000000000110000000131770000005000000000000658850000000000658850000000000000000000000000+0000000000000000000006588500012018103120180502201805020001000085442090000198      C
0000000120000000901     1012352378   1                              DIEGO BABATIVA                021691000000000000120000000077330000005000000000000386650000000000386650000000000000000000000000+000000000000000000000386650001201810312018091920180919009000122333209000901       C
0000000130000001901     1012352378   1BABATIVA                      DIEGO                         021691000000000000130000000077330000005000000000000386650000000000386650000000000000000000000000+0000000000000000000003866500012018103120181009201810090090000000102090009003      C
0000000140000002102     86006694274542COMPENSAR                                                   021691000000000000140000000077330000005000000000000386650000000000386650000000000000000000000000+00000000000000000000038665000120181031201810092018100900900001000020900090100     C
0000000150000002201     1012352378   1BABATIVA SIN LISTAS           DIEGO                         021691000000000000150000000077330000005000000000000386650000000000386650000000000000000000000000+00000000000000000000038665000120181031201810092018100900900001000020900090010     C
0000000160000002301     1012352378   1ESTO SE HA CAMBIADO           DFDSFSFSA                     021691000000000000160000000077330000005000000000000386650000000000386650000000000000000000000000+00000000000000000000038665000120181031201810092018100900900001000420900090100     C
0000000170000002001     1012352378   1BABATIVA                      DIEGO                         021691000000000000170000000061860000005000000000000309300000000000309300000000000000000000000000+00000000000000000000030930000120181031201810092018100900900001000120900090sdfsdf  C
0000000180000000801             54   1                              PRADA LOPERA                  021691000000000000180000000021960000005000000000000109800000000000109800000000000000000000000000+00000000000000000000010980000120181031201805032018050300070085214620900007C48     C
0000000190000003001       80200037   1APELLIDO INVERSIONISTA        NOMBRE INVERSIONIOSTA         021691000000000000190000000015460000005000000000000077300000000000077300000000000000000000000000+00000000000000000000007730000120181031201810222018102200900087456820900090Refe    C
0000000200000003201       80200037   1APELLIDO INVERSIONISTA        NOMBRE INVERSIONIOSTA         021691000000000000200000000015460000005000000000000077300000000000077300000000000000000000000000+00000000000000000000007730000120181031201810222018102200900087456820900090Refe    C
0000000210000000401       70080783   1                              INVERSDIONSTA OTRO            021691000000000000210000000013140000005000000000000065700000000000065700000000000000000000000000+000000000000000000000065700001201810312018050220180502000700280178209000073215    C
0000000220000003301       80200037   1APELLIDO INVERSIONISTA        NOMBRE INVERSIONIOSTA         021691000000000000220000000007730000005000000000000038650000000000038650000000000000000000000000+00000000000000000000003865000120181031201810222018102200900087456820900090Refe    C
0000000230000000701             54   1                              JHONATAN GOMEZ                021691000000000000230000000004480000005000000000000022400000000000022400000000000000000000000000+00000000000000000000002240000120181031201805032018050300070085214620900007C38     C
