0000000010000001801     1011235278   1BABATIVA                      DIEGO                         021691000000000000010000000773300000005000000000003866500000000003866500000000000000000000000000+000000000000000000003866500001201810302018100920181009009000000100209000905       C
0000000020000000206          A344F   1                              FELI                          021691000000000000020000000131770000005000000000000658850000000000658850000000000000000000000000+0000000000000000000006588500012018103020180502201805020001000085442090000198      C
0000000030000001901     1012352378   1BABATIVA                      DIEGO                         021691000000000000030000000077330000005000000000000386650000000000386650000000000000000000000000+0000000000000000000003866500012018103020181009201810090090000000102090009003      C
0000000040000002102     86006694274542COMPENSAR                                                   021691000000000000040000000077330000005000000000000386650000000000386650000000000000000000000000+00000000000000000000038665000120181030201810092018100900900001000020900090100     C
0000000050000002201     1012352378   1BABATIVA SIN LISTAS           DIEGO                         021691000000000000050000000077330000005000000000000386650000000000386650000000000000000000000000+00000000000000000000038665000120181030201810092018100900900001000020900090010     C
0000000060000002001     1012352378   1BABATIVA                      DIEGO                         021691000000000000060000000061860000005000000000000309300000000000309300000000000000000000000000+00000000000000000000030930000120181030201810092018100900900001000120900090sdfsdf  C
